:100000000C946B000C946E020C9488000C94880085
:100010000C9488000C9488000C9488000C94880040
:100020000C9488000C9438020C9488000C9488007E
:100030000C9488000C9493080C9488000C9488000D
:100040000C9488000C9488000C9488000C94880010
:100050000C94880007634236B79BD8A71A396856B4
:1000600018AEBAAB558C1D3CB7CC5763BD6DEDFDDA
:10007000753EF6177231BF000000803F0800000097
:10008000BE922449123EABAAAA2ABECDCCCC4C3E8D
:1000900000000080BEABAAAAAA3E00000000BF007C
:1000A0000000803F0000000000084178D3BB438778
:1000B000D1133D190E3CC3BD4282AD2B3E68EC828C
:1000C00076BED98FE1A93E4C80EFFFBE01C4FF7F11
:1000D0003F000000000011241FBECFE5D8E0DEBFC6
:1000E000CDBF12E0A0E6B0E0E6EAF0E202C0059083
:1000F0000D92A631B107D9F722E0A6E1B2E001C026
:100100001D92A933B207E1F70E9497000C94511099
:100110000C9400000E94110481E690E00E94E70325
:100120000E941F0482E790E00E94E7030895CF93A6
:10013000DF93CDB7DEB7CF55D1090FB6F894DEBF48
:100140000FBECDBF80911D028E7F80931D028091D6
:100150001D028D7F80931D020E9482020E94A306D1
:1001600064E670E082E00E9485020E9469040E94B9
:1001700080030E9413098A98929A8BB780648BBF80
:1001800085B7826085BF81EE8DBD8BE78CBD89B759
:10019000846089BF1FBC8EB584608EBD0E94AF0293
:1001A000979884EF91E00E949B020E9452030E9464
:1001B0003809829B0E94A6060E948A00789485B71F
:1001C000806885BF88950F2EFBE8DF2EF02D8E010D
:1001D0000F5F1F4F0F2EF7E0EF2EF02D0F2EF5E1E2
:1001E000FF2EF02D90911D0291FF08C087EC0E9418
:1001F000020780911D028D7F80931D0290911D0248
:1002000090FFF6C080911D028E7F80931D028BB7F8
:100210008F7B8BBF85B78D7F85BF0E943D0964E6CC
:1002200070E081E00E94850280E00E9402072B01BD
:100230003C010E94110482E890E00E94E7030E94C2
:100240001F0481E990E00E94E7038299FECF64E6F3
:1002500070E081E00E94850280E00E9402074B016D
:100260005C010E941104A3019201C501B4010E9426
:10027000420960931E0270931F02809320029093A4
:1002800021022DEC3CEC4CEC5DE30E94E50A1816D3
:100290000CF097C082EA90E00E94E70360911E0292
:1002A00070911F02809120029091210222E030E0A3
:1002B000AE014A5A5F4F0E940E05D0922202CE0133
:1002C0008A5A9F4F0E94E7030E941F0487EB90E029
:1002D0000E94E70320E030E04CE852E460911E0207
:1002E00070911F0280912002909121020E94EA0ADF
:1002F0000E94210ADC01CB0190931C0280931B0217
:10030000BE016A5A7F4F0E94670687EC80932202E3
:10031000CE018A5A9F4F0E94E70364E670E081E0B5
:100320000E94850280ED97E00E949B0281E00E947E
:100330009904198260911E0270911F02809120021F
:100340009091210222E030E0AE01445B5F4F0E94B9
:100350000E05BE01645B7F4FC8010E94310DD801BC
:100360000D900020E9F71197E7ECF0E08E2D019059
:100370000D928A95E1F7BE01645B7F4F80911B026D
:1003800090911C020E946706BE01645B7F4FC8010A
:100390000E94310DD8010D900020E9F71197EEEC85
:1003A000F0E08F2D01900D928A95E1F7B80183EE70
:1003B00090E00E949007B80181EF90E00E949007C2
:1003C0000DC08FEF90E00E94E7036AEF70E081E0DC
:1003D0000E94850280ED97E00E949B020E948A00A5
:1003E0009BB790649BBF95B7926095BF0E943809F8
:1003F00090911D0292FF3AC00E943D0980911D021A
:100400008B7F80931D0281E00E9499048FE091E030
:100410000E94E7036AEF70E081E00E94850263EECC
:1004200070E08DE292E00E943C0D892B61F061EF5B
:1004300070E08DE292E00E943C0D21E0892B09F0F2
:1004400020E0213039F460E271E08DE292E00E9418
:10045000900708C064EF71E081E00E94850281E0AE
:100460000E9499040E948A000E9438098895BACE99
:100470001F920F920FB60F9211248F9383ED8DBDB3
:100480001CBC80911D0281FD0EC0809117028F5F00
:1004900080931702843038F080911D02826080932F
:1004A0001D0210921702809116028F5F8093160230
:1004B000843118F01092160208C0813041F028F003
:1004C000823019F0833021F402C0A89A01C0A898A4
:1004D0008F910F900FBE0F901F9018951F920F9243
:1004E0000FB60F9211248F9380911D02816080932B
:1004F0001D028BB780648BBF8F910F900FBE0F9042
:100500001F901895A19AA99808950F931F93CF93C0
:10051000882369F08B01C82FA99AC8010E949B0209
:10052000A99884E690E00E949B02C150A9F7CF9160
:100530001F910F910895009741F0EFECF7E031978C
:10054000F1F700C000000197C1F70895009731F05E
:1005500022E02A95F1F700C00197D1F708958F9A0C
:1005600097980895EF92FF920F931F93CF93DF9385
:10057000EC017B010E9421098432E1F70E942109EC
:100580008734C1F70E9421098035A1F70E94210913
:10059000873481F70E942109873461F70E9421097D
:1005A000813441F70E9421098C32E1F70E94210930
:1005B0008C32E1F78E0129960E942109F80181937E
:1005C0008F01EC17FD07C1F70E9421098E34E1F776
:1005D0000E9421098C32E1F78701E7012A960E94E7
:1005E0002109F80181938F01EC17FD07C1F7DF9115
:1005F000CF911F910F91FF90EF90089582EB91E0C2
:100600000E9425090E9421098B34E1F781E00895B9
:100610000F931F93CF93DF93EC018B0181E00E9436
:1006200099048CE391E00E94E7038CE991E00E9439
:100630002509CE010E94250989E491E00E9425093F
:100640000E9421098E33E1F78BE491E00E94250995
:10065000C8010E9425098CE491E00E9425098AE1E5
:100660000E941D090E9421098B3451F08534D1F775
:100670000E94FE02811104C084E791E00E94E7031A
:100680008DE791E00E94E7030E94FE0288EE93E06E
:100690000E949B0281E00E949904DF91CF911F91FB
:1006A0000F910895CF9381E00E94990480E891E032
:1006B0000E94E7030E94FE02C82F8823D1F087EA38
:1006C00091E00E9425090E9421098B34E1F789E815
:1006D00091E00E9425090E9421098B34E1F78DE702
:1006E00091E00E94E70388EE93E00E949B02C1E044
:1006F00004C084E791E00E94E7038C2FCF91089516
:100700008D9A8E9882B3806682BB0895CF92DF92D5
:10071000EF92FF92CF93969A95988699FECFC8E173
:10072000C12CD12C7601959A82E090E00E94A6021D
:10073000CC0CDD1CEE1CFF1C959881E090E00E9423
:10074000A602869B05C02FEFC21AD20AE20AF20A5D
:1007500081E090E00E94A602C15029F7959A82E0BC
:1007600090E00E94A6029598C701B6018058CF91EB
:10077000FF90EF90DF90CF900895AB9881E090E0EC
:100780000E94A602AB9A0895CF93C82F85B39C2FE1
:10079000907F8F70892B85BB0E94BD0325B330E10C
:1007A000C39FC0011124922F9F70892B85BB0E948B
:1007B000BD038EEE92E00E94A602CF910895AA9802
:1007C0000E94C4030895AA9A0E94C40308950F9337
:1007D0001F93CF93DF93FC0120812223E9F0EC01EA
:1007E00000EC10E880912202803919F0803D21F060
:1007F00005C00093220202C01093220280912202BF
:1008000091E0980F909322020E94DF0389910E9449
:10081000E30388818111E6CFDF91CF911F910F9182
:10082000089581E00E94DF0380E88093220208950A
:1008300080E80E94DF0380E880932202089580EC24
:100840000E94DF0380EC809322020895DF92EF92F2
:10085000FF920F931F93CF93DF9386EB91E00E945B
:10086000E7030E941F04D3E00F2EF8ECDF2EF02DDB
:10087000E12C0F2EF0ECFF2EF02D1FC08C2F0E94CC
:10088000DF038EE20E94E30380E48C0F883020F4C3
:10089000C8010E949B0204C089E190E00E949B0273
:1008A0008C2F0E94DF0380E20E94E303CF5F0E5C87
:1008B0001F4FC03D19F7D15021F00D2D1E2DCF2D0A
:1008C000DDCFDF91CF911F910F91FF90EF90DF90DF
:1008D000089584B38C6F84BB85B3837085BB88E235
:1008E00090E00E949B0283E30E94DF0385E090E09A
:1008F0000E949B0283E30E94DF0384EF91E00E9449
:10090000A60282E30E94DF0384EF91E00E94A60228
:1009100088E20E94DF038CE00E94DF0386E00E94F1
:10092000DF0381E00E94DF030E9411040E9426047D
:100930000895CF93DF93D82F882319F0813021F0C9
:1009400005C00E94180402C00E941F04C0E180E29A
:100950000E94E303C150D9F7DD2319F0D13021F013
:1009600005C00E94180402C00E941F04DF91CF91AD
:1009700008959B01215031091216130684F4FC01DD
:10098000E60FF71FDC0180E090E04C9152915D93FF
:10099000408301962150310982179307B4F30895DB
:1009A000EF92FF920F931F93CF93DF938B019A01E6
:1009B000009799F0FB01C0E0D0E00F2EFAE0EF2E97
:1009C000F12CF02D2196B7010E94000D805D8193DE
:1009D000862F972F0097B1F702C0C0E0D0E0C21772
:1009E000D30764F4F801EC0FFD1FA801420F531F59
:1009F00080E38193E417F507E1F7E901BE01C8013F
:100A00000E94B904F801EC0FFD1F1082CE01DF91A6
:100A1000CF911F910F91FF90EF9008952F923F92E9
:100A20004F925F926F927F928F929F92AF92BF92FE
:100A3000CF92DF92EF92FF920F931F93CF93DF93AA
:100A40004B015C018A01E9010E94210A6B017C01D2
:100A500040E050E0B801C6010E94D0041C0120977C
:100A6000A9F1F801E80FF91F8EE28083BE010D2E77
:100A7000000C880B990B0E94590A9B01AC0160E0A5
:100A800070E080E291E40E94570B2B013C01B6011B
:100A9000DD0C880B990B0E94590A9B01AC01C50122
:100AA000B4010E9442099B01AC018FEF281A380A59
:100AB000020D131DC301B2010E94EA0A0E94210A1D
:100AC000DC01CB01AE01B8010E94D004DF91CF91CF
:100AD0001F910F91FF90EF90DF90CF90BF90AF905C
:100AE0009F908F907F906F905F904F903F902F904E
:100AF00008957F928F929F92AF92BF92CF92DF9292
:100B0000EF92FF920F931F93CF93DF938C017801A5
:100B1000F801C1918F018C2F90E00E94280D892B44
:100B2000B1F7C701CD3239F0CB3241F0CD3269F4A3
:100B300001E010E005C00FEF1FEF02C001E010E080
:100B40007C01FFEFEF1AFF0A02C001E010E0F7019D
:100B5000D0808D2D90E0C0970A9708F07DC0E70106
:100B60002196812C912C540120E030E040E251E4A8
:100B7000C501B4010E94EA0A4B015C018D2D90E091
:100B8000C097BC01990F880B990B0E94590A9B01D1
:100B9000AC01C501B4010E9443094B015C017E0117
:100BA000D9908D2D90E0C0970A97F0F258C0F701C8
:100BB0007180872D90E0C0970A97B8F5E7012296DB
:100BC0000F2EC12CD12CF0E8EF2EFFE3FF2EF02DDD
:100BD00020E030E040E251E4C501B4010E94EA0A9D
:100BE0004B015C01672D70E060537109072E000C0A
:100BF000880B990B0E94590A9B01AC01C501B401F5
:100C00000E9443094B015C0120E030E040E251E4E6
:100C1000C701B6010E94EA0A6B017C017990872D19
:100C200090E0C0970A97A0F208C00F2EC12CD12CDB
:100C3000F0E8EF2EFFE3FF2EF02DB801110F880B27
:100C4000990B0E94590AA50194010E94EA0AA70182
:100C500096010E94AF0910C0812C912C5401FEE234
:100C6000DF1609F4A4CF0F2EC12CD12CF0E8EF2E03
:100C7000FFE3FF2EF02DE1CFDF91CF911F910F9178
:100C8000FF90EF90DF90CF90BF90AF909F908F90AC
:100C90007F900895FC0101900020E9F73197E81B4F
:100CA000F90B9F0121503109121613067CF4E80F4D
:100CB000F91FDC0180E090E04C9152915D934083FC
:100CC00001962150310982179307B4F30895EF92EA
:100CD000FF920F931F93CF93DF938C01EB019C0145
:100CE000992324F422273327281B390BC901FE013D
:100CF00020E030E00F2EFAE0EF2EF12CF02D2F5FE8
:100D00003F4FB7010E94000D805D8193862F972F82
:100D100018161906A4F3C90111233CF42F5F3F4FA5
:100D2000FE01E80FF91F4DE24083FE01E20FF31FC1
:100D30001082CE010E944A06DF91CF911F910F9140
:100D4000FF90EF900895A09AA8980895CF92DF920F
:100D5000EF92FF920F931F93CF93DF93CDB7DEB740
:100D6000E2970FB6F894DEBF0FBECDBF0E9411040C
:100D700081ED91E00E94E70318E0C12CD12C7601AF
:100D80000E948603C60ED71EE81EF91E1150C1F739
:100D9000689412F8F694E794D794C7941694D1F710
:100DA000FF92EF92DF92CF928DED91E09F938F9320
:100DB0008E010F5F1F4F1F930F930E94450D49E156
:100DC00050E060E070E0C8010E94F90F8DE791E00B
:100DD0000E94E70380ED97E00E949B020FB6F89413
:100DE000DEBF0FBECDBFE2960FB6F894DEBF0FBEDA
:100DF000CDBFDF91CF911F910F91FF90EF90DF90CA
:100E0000CF9008958F929F92AF92BF92CF92DF9230
:100E1000EF92FF920F931F93CF93DF93CDB7DEB77F
:100E2000A3970FB6F894DEBF0FBECDBF082F49E1E0
:100E300050E060E070E0CE0101960E94E90F18E0FA
:100E4000C12CD12C76010E948603C60ED71EE81E47
:100E5000F91E1150C1F7CE0101960E9479054B0190
:100E60005C01C701B601689412F89695879577954D
:100E700067951694D1F70E94570A6B017C0120E018
:100E800030E04AEF54E4C501B4010E9442099B01DD
:100E9000AC01C701B6010E94420927E137EB41E5E9
:100EA00057E30E94EA0AD62EE72EF82E192F0023C8
:100EB00001F19F938F937F936F9381EE91E09F93C6
:100EC0008F935E018AE1A80EB11CBF92AF920E947F
:100ED000450D009322028CEC91E00E94E703009301
:100EE0002202C5010E94E7030FB6F894DEBF0FBED1
:100EF000CDBF6D2D7E2D8F2D912FA3960FB6F8941B
:100F0000DEBF0FBECDBFDF91CF911F910F91FF903C
:100F1000EF90DF90CF90BF90AF909F908F9008950B
:100F20008F929F92AF92BF92CF92DF92EF92FF92F9
:100F30000F931F93CF93DF93CDB7DEB7C65CD10974
:100F40000FB6F894DEBF0FBECDBF7C011F8AFE0135
:100F50003C96DE0111968E010A5E1F4F90E391933D
:100F60009D93E017F107D9F71E8A1B861C8619820C
:100F70006E0187E1C80ED11CC6010E94310DD60159
:100F80000D900020E9F7119780E2E6EFF1E0019083
:100F90000D928A95E1F7979A84EF91E00E949B0267
:100FA000BE01645F7F4FCE0101960E94B20289812B
:100FB000C355DF4F8883CD5AD0408A81C255DF4F59
:100FC0008883CE5AD040C155DF4F1882CF5AD040C7
:100FD000FE013396DE01A055BF4F9E01255F3F4FB6
:100FE00081918D93E217F307D9F7C854DF4F188228
:100FF000C85BD040CE0183559F4F0E9479054B01BD
:101000005C01CE0180559F4F0E94790520E030E0C1
:1010100040E752E40E94AF099B01AC01C501B40155
:101020000E94430924E030E0AE014F5F5F4F0E9411
:101030000E058C85C654DF4F8883CA5BD0408D85F2
:10104000C554DF4F8883CB5BD0408E85C454DF4FBF
:101050008883CC5BD040C354DF4F1882CD5BD04037
:10106000FE013F96DE01A254BF4F81918D930E1772
:101070001F07D9F7CB53DF4F1882C55CD040CE0194
:1010800086549F4F0E9479054B015C01CE0182542A
:101090009F4F0E94790520E030E040E752E40E9433
:1010A000AF099B01AC01C501B4010E94430924E0D2
:1010B00030E0AE01445F5F4F0E940E058E01095E75
:1010C0001F4FBE016F5F7F4FC8010E94310DF801B5
:1010D00001900020E9F731978CE290E091838083C2
:1010E000BE01645F7F4FC8010E94310D979884EF65
:1010F00091E00E949B02B801C7010E940803CA53F5
:10110000DF4F0FB6F894DEBF0FBECDBFDF91CF919A
:101110001F910F91FF90EF90DF90CF90BF90AF9015
:101120009F908F9008951F920F920FB60F921124E7
:101130002F933F934F935F936F937F938F939F93DF
:10114000AF93BF93EF93FF9380916000823089F05B
:1011500018F4813031F056C08330E9F0843011F159
:1011600051C08CB1823209F04DC082E080936000A2
:1011700049C080911A02E1E0E80FE0931A028D3035
:1011800030F48CB1F0E0E45DFD4F80833BC083E040
:101190008093600037C08CB18A30A1F584E08093E1
:1011A000600030C0E091190281E08E0F8093190237
:1011B0009CB1F0E0ED5DFD4F90839A3019F5E82F7A
:1011C000F0E0EF5DFD4F1082E0E3F2E0ADE2B2E06F
:1011D0002AE332E081918D93E217F307D9F78AE091
:1011E000809318021092370281E080936000109281
:1011F000190210921A0280911D02846080931D02D0
:101200000E943D09FF91EF91BF91AF919F918F9106
:101210007F916F915F914F913F912F910F900FBEF2
:101220000F901F9018958AB188618AB980B5866839
:1012300080BD83E389B910BC08955D9BFECF8CB956
:1012400008955F9BFECF8CB10895CF93DF93EC019F
:101250008881882351F021960E941D0981E090E049
:101260000E949B0289918111F7CFDF91CF91089560
:101270008CB18CB18CB1579A08958CB18CB18CB172
:10128000579808955058BB27AA270E945A090C94D2
:10129000AB0A0E949D0A38F00E94A40A20F039F49B
:1012A0009F3F19F426F40C949A0A0EF4E095E7FB9C
:1012B0000C94940AE92F0E94BC0A58F3BA176207EB
:1012C00073078407950720F079F4A6F50C94DE0ADD
:1012D0000EF4E0950B2EBA2FA02D0B01B901900151
:1012E0000C01CA01A0011124FF27591B99F0593F95
:1012F00050F4503E68F11A16F040A22F232F342FDD
:101300004427585FF3CF469537952795A795F0402A
:101310005395C9F77EF41F16BA0B620B730B840B3F
:10132000BAF09150A1F0FF0FBB1F661F771F881FF7
:10133000C2F70EC0BA0F621F731F841F48F487954F
:1013400077956795B795F7959E3F08F0B0CF939541
:10135000880F08F09927EE0F9795879508950E94BA
:10136000C3090C94AB0A0E94A40A58F00E949D0A7B
:1013700040F029F45F3F29F00C94940A51110C9429
:10138000DF0A0C949A0A0E94BC0A68F39923B1F30D
:10139000552391F3951B550BBB27AA27621773079B
:1013A000840738F09F5F5F4F220F331F441FAA1F2F
:1013B000A9F335D00E2E3AF0E0E832D091505040EB
:1013C000E695001CCAF72BD0FE2F29D0660F771F99
:1013D000881FBB1F261737074807AB07B0E809F07F
:1013E000BB0B802DBF01FF2793585F4F3AF09E3F04
:1013F000510578F00C94940A0C94DF0A5F3FE4F3F3
:10140000983ED4F3869577956795B795F7959F5F46
:10141000C9F7880F911D9695879597F90895E1E092
:10142000660F771F881FBB1F621773078407BA07F1
:1014300020F0621B730B840BBA0BEE1F88F7E0954C
:1014400008950E94280A6894B1110C94DF0A089547
:101450000E94C40A88F09F5798F0B92F9927B75176
:10146000B0F0E1F0660F771F881F991F1AF0BA9548
:10147000C9F714C0B13091F00E94DE0AB1E00895BE
:101480000C94DE0A672F782F8827B85F39F0B93FB0
:10149000CCF3869577956795B395D9F73EF49095FB
:1014A0008095709561957F4F8F4F9F4F0895E89479
:1014B00009C097FB3EF490958095709561957F4F9C
:1014C0008F4F9F4F9923A9F0F92F96E9BB2793954A
:1014D000F695879577956795B795F111F8CFFAF45A
:1014E000BB0F11F460FF1BC06F5F7F4F8F4F9F4F8B
:1014F00016C0882311F096E911C0772321F09EE8E9
:10150000872F762F05C0662371F096E8862F70E04E
:1015100060E02AF09A95660F771F881FDAF7880F28
:101520009695879597F9089597F99F6780E870E0F9
:1015300060E008959FEF80EC089500240A94161649
:10154000170618060906089500240A9412161306B1
:10155000140605060895092E0394000C11F488233F
:1015600052F0BB0F40F4BF2B11F460FF04C06F5F5B
:101570007F4F8F4F9F4F089557FD9058440F551F31
:1015800059F05F3F71F04795880F97FB991F61F005
:101590009F3F79F087950895121613061406551F7C
:1015A000F2CF4695F1DF08C0161617061806991FE8
:1015B000F1CF86957105610508940895E894BB27DD
:1015C00066277727CB0197F908950E94E10B08F46D
:1015D0008FEF08950E94FD0A0C94AB0A0E949D0AA9
:1015E00038F00E94A40A20F0952311F00C94940A7C
:1015F0000C949A0A11240C94DF0A0E94BC0A70F31E
:10160000959FC1F3950F50E0551F629FF001729FA7
:10161000BB27F00DB11D639FAA27F00DB11DAA1FB6
:10162000649F6627B00DA11D661F829F2227B00D03
:10163000A11D621F739FB00DA11D621F839FA00D8E
:10164000611D221F749F3327A00D611D231F849FDE
:10165000600D211D822F762F6A2F11249F57504035
:101660009AF0F1F088234AF0EE0FFF1FBB1F661FB0
:10167000771F881F91505040A9F79E3F510580F079
:101680000C94940A0C94DF0A5F3FE4F3983ED4F381
:10169000869577956795B795F795E7959F5FC1F71D
:1016A000FE2B880F911D9695879597F90895FA015D
:1016B000EE0FFF1F309621053105A1F1611571056F
:1016C00061F48038BFE39B0749F168949038810545
:1016D00061F08038BFEF9B0741F099234AF5FF3F47
:1016E000E1053105210519F1E8940894E795D90140
:1016F000AA2329F4AB2FBE2FF85FD0F310C0FF5FF1
:1017000070F4A695E0F7F73950F019F0FF3A38F485
:101710009F779F930DD00F9007FC9058089546F047
:101720000C949A0A60E070E080E89FE308954FE728
:101730009F775F934F933F932F930E94760C2F9147
:101740003F914F915F910E94EA0A0C94AF0B29F4EC
:1017500016F00C94940A0C94DE0A0C949A0A0E94D7
:10176000C40AA8F39638A0F707F80F92E8942BE381
:101770003AEA48EB5FE70E94000B0F920F920F923C
:101780004DB75EB70F920E94BE0CE4E5F0E00E94F8
:10179000050C4F915F91EF91FF91E595EE1FFF1FB3
:1017A00049F0FE57E0684427EE0F441FFA95E1F731
:1017B0004195550B0E94380C0F9007FE0C942C0C91
:1017C0000895990F0008550FAA0BE0E8FEEF1616D2
:1017D0001706E807F907C0F012161306E407F50725
:1017E00098F0621B730B840B950B39F40A2661F099
:1017F000232B242B252B21F408950A2609F4A1403C
:10180000A6958FEF811D811D0895DF93CF931F93C0
:101810000F93FF92EF92DF927B018C01689406C0D8
:10182000DA2EEF010E94FD0AFE01E894A5912591B0
:10183000359145915591A6F3EF010E945A09FE0199
:101840009701A801DA9469F7DF90EF90FF900F916C
:101850001F91CF91DF9108959B01AC0160E070E092
:1018600080E89FE30C94AF090C94940A0C94F20C5A
:101870000E94C40AD8F39923C9F3940F511DA3F30E
:101880009150504094F059F0882332F0660F771F42
:10189000881F91505040C1F79E3F51052CF7880F8B
:1018A000911D9695879597F908955F3FACF0983E06
:1018B0009CF0BB27869577956795B79508F4B1603E
:1018C0009395C1F7BB0F58F711F460FFE8CF6F5F36
:1018D0007F4F8F4F9F4FE3CF0C94DF0A16F00C948D
:1018E000F20C0C949A0A68940C94940A0E94C40A0C
:1018F000A8F39923C1F3AEF3DF93CF931F930F9314
:10190000FF92C92FDD2788232AF02197660F771FC2
:10191000881FDAF720E030E040E85FEB9FE388398A
:1019200020F0803E38F021968F770E944309ECE743
:10193000F0E004C00E944309E9EAF0E00E94050CCF
:101940008B01BE01EC01FB2E6F5771097595771F56
:10195000880B990B0E94590A28E132E741E35FE3C3
:101960000E94FD0AAF2D9801AE01FF900F911F91CB
:10197000CF91DF910E945A090C94AB0AFA01DC0165
:10198000AA0FBB1F9B01AC01BF5728F422273327A6
:101990004427507820C0B75190F4AB2F00244695CF
:1019A00037952795011CA395D2F3002071F0220FE3
:1019B000331F441FB395DAF30ED00C944209613003
:1019C0007105A0E88A07B94630F49B01AC0166278F
:1019D000772788279078309621F0208331834283BF
:1019E000538308959F3F31F0915020F48795779568
:1019F0006795B795880F911D9695879597F90895E6
:101A000097FB072E16F4009407D077FD09D00E94AB
:101A1000140D07FC05D03EF4909581959F4F0895D5
:101A2000709561957F4F0895AA1BBB1B51E107C0BC
:101A3000AA1FBB1FA617B70710F0A61BB70B881F5E
:101A4000991F5A95A9F780959095BC01CD010895ED
:101A500091110C943A0F803219F089508550C8F7D3
:101A60000895FB01DC010D900020E9F7119701902A
:101A70000D920020E1F70895FB01DC018D910190AA
:101A800080190110D9F3990B0895AEE0B0E0EBE4B2
:101A9000FDE00C9428100D891E8986E08C831A8342
:101AA00009838FEF9FE79E838D83AE01475E5F4F73
:101AB0006F89788DCE0101960E94680D2F8138853F
:101AC000F801E20FF31F10822E96E4E00C9444100C
:101AD000ACE0B0E0EEE6FDE00C941A107C016B0186
:101AE0008A01FC0117821682838181FFBDC1CE016C
:101AF00001964C01F7019381F60193FD859193FFC7
:101B000081916F01882309F4ABC1853239F493FDCB
:101B1000859193FF81916F01853229F4B70190E09F
:101B20000E94530FE7CF512C312C20E02032A0F43B
:101B30008B3269F030F4803259F0833269F42061DD
:101B40002CC08D3239F0803339F4216026C02260F8
:101B5000246023C0286021C027FD27C030ED380F46
:101B60003A3078F426FF06C0FAE05F9E300D11246B
:101B7000532E13C08AE0389E300D1124332E20627C
:101B80000CC08E3221F426FD6BC1206406C08C3659
:101B900011F4206802C0883641F4F60193FD859166
:101BA00093FF81916F018111C1CF982F9F7D955433
:101BB000933028F40C5F1F4FFFE3F9830DC0833689
:101BC00031F0833771F0833509F05BC022C0F80132
:101BD000808189830E5F1F4F44244394512C54010C
:101BE00015C03801F2E06F0E711CF801A080B180C1
:101BF00026FF03C0652D70E002C06FEF7FEFC501C7
:101C00002C870E94480F2C0183012C852F77222ED0
:101C100017C03801F2E06F0E711CF801A080B1808E
:101C200026FF03C0652D70E002C06FEF7FEFC50196
:101C30002C870E943D0F2C012C852068222E8301C9
:101C400023FC1BC0832D90E048165906B0F4B70161
:101C500080E290E00E94530F3A94F4CFF50127FC04
:101C6000859127FE81915F01B70190E00E94530F9B
:101C700031103A94F1E04F1A51084114510471F7B0
:101C8000E5C0843611F0893639F5F80127FF07C021
:101C900060817181828193810C5F1F4F08C06081D8
:101CA0007181072E000C880B990B0E5F1F4F2F764A
:101CB000722E97FF09C090958095709561957F4F22
:101CC0008F4F9F4F2068722E2AE030E0A4010E94BF
:101CD0008B0FA82EA81844C0853729F42F7EB22E6A
:101CE0002AE030E025C0F22FF97FBF2E8F36C1F0F9
:101CF00018F4883579F0B4C0803719F0883721F0AE
:101D0000AFC02F2F2061B22EB4FE0DC08B2D84608A
:101D1000B82E09C024FF0AC09F2F9660B92E06C0B6
:101D200028E030E005C020E130E002C020E132E0F0
:101D3000F801B7FE07C060817181828193810C5FD9
:101D40001F4F06C06081718180E090E00E5F1F4FE1
:101D5000A4010E948B0FA82EA818FB2DFF777F2EC1
:101D600076FE0BC0372D3E7FA51450F474FE0AC0DA
:101D700072FC08C0372D3E7E05C0BA2C372D03C03B
:101D8000BA2C01C0B52C34FF0DC0FE01EA0DF11DC7
:101D90008081803311F4397E09C032FF06C0B394CC
:101DA000B39404C0832F867809F0B39433FD13C035
:101DB00030FF06C05A2CB31418F4530C5B18B32C24
:101DC000B31468F4B70180E290E03C870E94530F9F
:101DD000B3943C85F5CFB31410F43B1801C0312CFB
:101DE00034FF12C0B70180E390E03C870E94530F9C
:101DF0003C8532FF17C031FD03C088E790E002C088
:101E000088E590E0B7010CC0832F867859F031FF48
:101E100002C08BE201C080E237FD8DE2B70190E0A5
:101E20000E94530FA51438F4B70180E390E00E949C
:101E3000530F5A94F7CFAA94F401EA0DF11D808153
:101E4000B70190E00E94530FA110F5CF332009F4A1
:101E500051CEB70180E290E00E94530F3A94F6CF42
:101E6000F7018681978102C08FEF9FEF2C96E2E108
:101E70000C943610992788270895FC01059061502D
:101E800070400110D8F7809590958E0F9F1F089590
:101E9000FC016150704001900110D8F78095909539
:101EA0008E0F9F1F08950F931F93CF93DF93FB0116
:101EB000238121FD03C08FEF9FEF28C022FF16C0B2
:101EC00046815781248135814217530744F4A0810C
:101ED000B1819D012F5F3F4F318320838C932681F9
:101EE00037812F5F3F4F3783268310C0EB01092FC7
:101EF000182F0084F185E02D0995892BE1F68E815C
:101F00009F8101969F838E83812F902FDF91CF91A8
:101F10001F910F910895FA01AA27283051F120311D
:101F200081F1E8946F936E7F6E5F7F4F8F4F9F4F6D
:101F3000AF4FB1E03ED0B4E03CD0670F781F891FAF
:101F40009A1FA11D680F791F8A1F911DA11D6A0F7D
:101F5000711D811D911DA11D20D009F468943F9130
:101F60002AE0269F11243019305D3193DEF6CF012F
:101F70000895462F4770405D4193B3E00FD0C9F7F5
:101F8000F6CF462F4F70405D4A3318F0495D31FD62
:101F90004052419302D0A9F7EACFB4E0A6959795B5
:101FA000879577956795BA95C9F70097610571058B
:101FB00008959B01AC010A2E0694579547953795D5
:101FC0002795BA95C9F7620F731F841F951FA01D2F
:101FD0000895DC01CB01FC01E199FECF06C0FFBBF7
:101FE000EEBBE09A31960DB20D9241505040B8F7D9
:101FF0000895DC01A40FB51F4150504048F0CB01BB
:10200000840F951F2E910E940A1041505040D0F726
:102010000895262FE199FECF9FBB8EBBE09A0197D2
:102020000DB2021631F02DBB0FB6F894E29AE19A88
:102030000FBE08952F923F924F925F926F927F92C0
:102040008F929F92AF92BF92CF92DF92EF92FF92C8
:102050000F931F93CF93DF93CDB7DEB7CA1BDB0B74
:102060000FB6F894DEBF0FBECDBF09942A88398819
:1020700048885F846E847D848C849B84AA84B98420
:10208000C884DF80EE80FD800C811B81AA81B9812C
:10209000CE0FD11D0FB6F894DEBF0FBECDBFED0140
:0620A0000895F894FFCF43
:1020A600014469676974616C4675656C476175675B
:1020B600650020204675656C3A20202020204C744F
:1020C60073002046696C6C20546865204675656C03
:1020D600005072657373205357204127436F6D700C
:1020E6006C004675656C2041646465643A20202066
:1020F6002020204C747300416D6F756E743A202059
:10210600202020205273004C747320262000527326
:10211600206F66206675656C2066696C6C65642048
:1021260061740050484F4E455F4E554D4245523101
:102136000050484F4E455F4E554D42455232004E77
:102146006F204675656C2041646465642120004DEE
:1021560065737361676520526563656976656400BA
:10216600596F75722056656869636C6520697320BE
:102176004C6F6361746564206174200053656E64FE
:10218600696E6720534D533A00220D002E2041758B
:10219600746F6D6174656420534D532042793A2003
:1021A6004469676974616C204675656C2047756182
:1021B60067652E004641494C45442021004F4B009F
:1021C60047534D3A20003B0D0041542B434E4D4999
:1021D6003D322C322C322C302C300D0041542B4306
:1021E6004D47533D22300041542B434D47463D3128
:1021F6000D0041540D002020494E495449414C4997
:102206005A494E4700202020202020202020202030
:10221600004675656C2053656E733A2000256C6424
:102226000025302E316600204C41543A00202620ED
:102236004C4F4E3A200020687474703A2F2F6D610F
:1022460070732E676F6F676C652E636F6D2F6D6190
:0622560070733F713D00B2
:00000001FF
